:020000040800F2
:100000009804002045010008E3170008991700082C
:10001000E117000849020008CF1A0008000000009C
:1000200000000000000000000000000007180008A9
:100030004B0200080000000005180008091800081D
:100040005F0100085F0100085F0100085F01000810
:100050005F0100085F0100085F0100085F01000800
:100060005F0100085F0100085F0100085F010008F0
:100070005F0100085F0100085F0100085F010008E0
:100080005F0100085F0100085F0100085F010008D0
:100090005F0100085F0100085F0100085F010008C0
:1000A0005F0100085F0100085F0100085F010008B0
:1000B0005F0100085F0100085F0100085F010008A0
:1000C0005F0100085F0100085F0100085F01000890
:1000D0005F0100085F0100085F0100085F01000880
:1000E0005F0100085F0100085F0100085F01000870
:1000F0005F0100085F0100085F0100085F01000860
:100100005F0100085F0100085F0100085F0100084F
:100110005F0100085F0100085F0100085F0100083F
:100120005F0100085F0100085F0100085F0100082F
:10013000DFF80CD000F018F800480047F11A00086A
:10014000980400200648804706480047FEE7FEE77F
:10015000FEE7FEE7FEE7FEE7FEE7FEE7FEE7FEE777
:100160008518000831010008064C074D06E0E068DC
:1001700040F0010394E8070098471034AC42F6D3EE
:10018000FFF7DAFF001C0008201C000870B50446C9
:1001900000688168C943C9071CD1816821F0010149
:1001A000816000F053FC05460FE000BF00F04EFCFC
:1001B000401B022809D9A06A40F01000A062E06A42
:1001C00040F00100E062012070BD20688068C043FB
:1001D000C007EBD0002070BDF8B50026044600969D
:1001E00000688168C943C90728D0816841F00101CE
:1001F0008160134813490068B0FBF1F000E0401E35
:1002000000900028FBD100F021FC054611E000BF62
:1002100000F01CFC401B02280BD9A06A40F0100023
:10022000A062E06A40F00100E06284F824600120EE
:10023000F8BD20688068C043C007E9D10020F8BD40
:100240000C00002040420F00FEE77047F8B5002583
:10025000009590F82420AE46012A1ED0012280F895
:1002600024204A681F244FF47873072A17D206689F
:10027000776B93FAA3FCBCFA8CFC521E02FB0CFCBD
:1002800004FA0CF4A74393FAA3F3B3FA83F30C68CC
:100290005A439440274377632DE00220F8BD066857
:1002A0000D2A14D2376B93FAA3FCBCFA8CFCD21F34
:1002B00002FB0CFC04FA0CF4A74393FAA3F3B3FA81
:1002C00083F30C685A4394402743376313E0F76A7B
:1002D00093FAA3FCBCFA8CFC0D3A02FB0CFC04FA6A
:1002E0000CF4A74393FAA3F3B3FA83F30C685A43CD
:1002F00094402743F7620A683823072406680A2ACD
:1003000014D3F76893FAA3FCBCFA8CFC0A3A02FBFC
:100310000CFC04FA0CF4A74393FAA3F3B3FA83F3A7
:100320008C685A4394402743F76012E0376993FA88
:10033000A3FCBCFA8CFC02FB0CFC04FA0CF4A743F3
:1003400093FAA3F3B3FA83F38C685A439440274398
:1003500037610A68102A01D0112A20D1124B026895
:100360009A4217D193681B0219D4936843F400038F
:1003700093600968102912D10C490D4A0968B1FB34
:10038000F2F101EB8101490000E0491E00910029D2
:10039000FBD104E0816A41F020018162012580F8EF
:1003A00024E02846F8BD0000002401400C00002095
:1003B00040420F000068C06C704700002DE9F0411A
:1003C00004004FF0000503D0A06A002618B108E031
:1003D0000120BDE8F081E66284F82460204600F048
:1003E00091F82046FFF7D2FE0146A06AC00600D46D
:1003F00021B1A06A40F01000A0627AE0A06A20F467
:10040000885040F00200A0623B4823688342E069C4
:1004100004D1B0F5402F01D14FF40020022292FA0E
:10042000A2F2E768B2FA82F207FA02F210436268B7
:100430004FF4807C1043A268624509D0012A07D09E
:100440005FF00002D4F814E0BEF1010F02D00AE020
:100450006246F7E7C7B1A76A47F02007A762E76AD5
:1004600047F00107E7625F6827F4694717435F6059
:1004700023689A68214F3A4002439A60A268624515
:1004800010D0012A0ED016E04FF4604EA7699EFAF4
:10049000AEFEBEFA8EFE7F1E07FA0EF7174347F434
:1004A0000062E0E74FF47002256992FAA2F2B2FA14
:1004B00082F26D1E95402268D36A23F470032B43A9
:1004C000D362226892680E4B1A40824207D1E662DC
:1004D000A06A20F0020040F00100A0620AE0A06AD9
:1004E00020F0020040F01000A062E06A40F001003D
:1004F000E062012108466CE7003C0140FDF7E1FFA6
:10050000FE0E1FFF00B500680B4985B0884210D170
:100510000A48816941F4007181618069694600F48B
:10052000007004900220009003200190044800F025
:1005300099F905B000BD0000002401400010024000
:10054000000801402DE9F84300260D4604460096B8
:1005500000F07CFA804620688168C90508D5A06A49
:1005600040F02000A06284F824600120BDE8F883F8
:100570004168C90503D4C06A10F4700F26D0022068
:1005800000F010FB38490968B1FBF0F720680369F7
:1005900036490B424FEA61014FEAA1121BD1C368F1
:1005A0004FEA611C13EA0C0F15D103690B4221D1EC
:1005B000C06810421ED114201FE0681C06D045B34D
:1005C00000F044FAA0EB0800A84222D82068006896
:1005D0008007F2D52AE003690B4202D1C1681142BB
:1005E00006D0026922490A4206D1C068084203D1F6
:1005F000542002E0292000E0FC204743009813E04B
:10060000681C0ED02DB100F021FAA0EB0800A84222
:1006100007D9A06A40F00400A06284F82460032097
:10062000A4E70098401C0090B842E9D321686FF01D
:1006300012000860A06A40F40070A0622068806820
:10064000C0F3424007280CD1E06850B9A06A20F4FA
:100650008070A062A06AC00403D4A06A40F00100C8
:10066000A062002082E700000C00002024499224B0
:100670004992240070B5044690F8240001280DD05A
:10068000012084F824002046FFF7A6FD02004FF069
:10069000000005D084F82400104670BD022070BD13
:1006A000A16A40F20123994341F48071A1621F4D78
:1006B00023681F49AB4218D10E6816F4702F14D06E
:1006C000A66A46F48016A6620E68760505D5A66A67
:1006D00026F4005646F48056A662A66AF6040AD5A9
:1006E000E66A26F00606E66206E0A66A26F48016AA
:1006F000A6625E68E9E7E06284F824006FF0020019
:10070000186020688368C3F34243072B05D1A842D1
:1007100008D1096811F4702F04D0816841F4801168
:100720008160B9E7816841F4A001F9E70028014040
:100730000424014070B54379012B1AD0012444717F
:1007400002230371D1E9003105680B43296840F6A3
:10075000FE769640B14393401943296001680B68C7
:10076000C0259540AB430B600471002141710846E0
:1007700070BD022070BD70B5040003D02079002543
:1007800010B105E0012070BD6571204600F008F849
:1007900002202071256101202071002070BD000021
:1007A00000B500680B4985B0884210D10A48C1697C
:1007B00041F00051C161C069694600F000500490E9
:1007C0001020009003200190044800F04BF805B081
:1007D00000BD00000074004000100240000801400D
:1007E00018B5046800940068104421B114300090DA
:1007F0000360002018BD0830F9E730B54279012ABE
:1008000012D0012242710223037103681D6802FAAB
:1008100001F425431D60002901680B6806D0C3F36D
:1008200083430F2B0AD00DE0022030BDC3F38303B6
:100830000F2B07D14B6843F0010302E04B6843F0F4
:1008400002034B60027100214171084630BD31B591
:1008500000F0FCF8044600F0F9F80099001B88420B
:10086000F9D338BD2DE9F84FDFF8B8A100220AF11D
:10087000040B144601274FF00F090BF1040E00BFC3
:100880000B6807FA04F52B40AB4274D1DFF898C12E
:100890004E68A6EB0C0866452BD00DDC032E34D039
:1008A00005DC36B3012E19D0022E2FD11BE0112EFC
:1008B00016D0122E2AD119E0B8F5881F19D006DCFF
:1008C000B8F5803F15D0B8F5801F1FD111E0B8F5FD
:1008D000001F0ED0B8F5041F18D10AE0CA6815E051
:1008E000CA68121D12E0CA6808320FE0CA680C32EA
:1008F0000CE08A682AB1012A4FF0080203D0456152
:1009000004E0042202E0056100E00022FF2B01D890
:10091000064601E000F104064FEA840501D9A5F17D
:100920002005D6F800C009FA05F82CEA080C02FAEE
:1009300005F54CEA050CC6F800C04D68ED006AD517
:100940003A4DAE6946F00106AE61AD6924F003068A
:1009500005F001050095364D06EB050CDCF8085056
:10096000A6074FEA167809FA08F6B543314EB042A9
:1009700002D100261AE04EE02F4EB04201D10126EE
:1009800014E02E4EB04201D102260FE02C4EB042B0
:1009900001D103260AE02B4EB04201D1042605E026
:1009A000294EB04201D1052600E0062606FA08F6D7
:1009B0002E43CCF808604D68DAF80060ED03554628
:1009C00001D51E4300E09E432E604D68AD0305D562
:1009D000DBF800601E43CBF8006004E0DBF8005059
:1009E0009D43CBF800504D68DEF80060ED0275467F
:1009F00001D51E4300E09E432E604D68AD0205D533
:100A0000084D0C352E681E432E6004E0054E0C3652
:100A100035689D433560641C102CFFF431AFBDE890
:100A2000F88F000000040140000011100010024087
:100A30000000014000080140000C0140001001408E
:100A40000014014000180140001C014001480068EA
:100A5000704700000800002002480168491C01603E
:100A60007047000008000020074810B5016841F0F9
:100A700010010160032000F083F8002000F006F868
:100A800000F016F8002010BD0020024010B504460A
:100A900000F062FA4FF47A71B0FBF1F000F0A2FDC1
:100AA00000222146501E00F04BF8002010BD00002F
:100AB000214808B5816941F001018161816901F036
:100AC00001010091C16941F08051C161C06900F02C
:100AD00080500090032000F053F8002211466FF080
:100AE0000B0000F02DF8002211466FF00A0000F014
:100AF00027F8002211466FF0090000F021F80022CB
:100B00001146501F00F01CF800221146101F00F083
:100B100017F800221146901E00F012F8002211462C
:100B2000501E00F00DF80548416821F0E06141F0E9
:100B30000071416008BD000000100240000001404B
:100B4000F0B40E4B1B680C46C3F30223C3F1070538
:100B5000042D00D90425191D072901D2002300E026
:100B6000DB1E012606FA05F1491E214099409E40F0
:100B7000761E16403143F0BC00F034BE0CED00E0B0
:100B8000064900F0070208684FF6FF03184040EAE4
:100B90000220034A10430860704700000CED00E09B
:100BA0000000FA0510B537A401461DCC86B08DE8CB
:100BB0001D0038A0384C006804900020042944D05F
:100BC00012DC012944D002293DD100F0E3F961682B
:100BD0004FF4804292FAA2F201F44041B2FA82F25A
:100BE000D140491C49002CE008292ED010292AD1D7
:100BF00061682268D20126D54FF4701292FAA2F2EF
:100C000001F47010B2FA82F2D040C9031DF800005E
:100C100010D561684FF4003292FAA2F201F400316B
:100C2000B2FA82F2D14004AA515C1C4AB2FBF1F143
:100C3000484301E01A4948436168490203D440002F
:100C40000321B0FBF1F006B010BD00F0BBF9FAE7EC
:100C5000226AC2F30121012903D1920701D5C803F9
:100C6000F1E7022905D1626A920702D549F64040B0
:100C7000E9E70329E7D121688903E4D54FF224404D
:100C8000E1E7000002030405060708090A0B0C0D42
:100C90000E0F1010010200000010024000127A0036
:100CA00000093D002DE9F84305460078454CC00792
:100CB00074D0E06940F08050E061E069424E00F09D
:100CC00080500090306840F480703060FFF7BEFEC6
:100CD000074604E0FFF7BAFEC01B642833D830682B
:100CE000C005F7D5206A10F4407051D0A98801F4EE
:100CF000407181424CD0206A0126310491FAA1F260
:100D0000B2FA82F29300314A20F440701344C3F8DF
:100D1000006491FAA1F1B1FA81F102EB81010023A3
:100D2000C1F800342062C00732D0FFF78FFE0746BB
:100D300041F288394FF0020808E000BFFFF786FE55
:100D4000C11B494502D90320BDE8F88398FAA8F1F0
:100D5000B1FA81F141F040014046B6EB511F01D19B
:100D600021680BE090FAA0F1B1FA81F141F0400165
:100D7000B0EB511F01D1216A00E0616A98FAA8F036
:100D8000B0FA80F000F01F0206FA02F00142D5D05E
:100D9000206A696820F44070084320622878800740
:100DA00005D56068A96820F4404008436060287851
:100DB000C00605D56068696920F48000084360605A
:100DC0000020C1E7001002400070004000004242D5
:100DD0002DE9F047DFF8708105460E46D8F800008F
:100DE00000F00700B0420CD2D8F8001021F0070143
:100DF0003143C8F80010D8F8000000F00700B042F6
:100E000077D12878514C800705D56068A96820F013
:100E1000F000084360602878C00759D06968012055
:100E200001290DD0022929D05FF0020393FAA3F221
:100E3000B2FA82F242F02002520904D0226803E0A2
:100E40004FF40033F2E7626A93FAA3F3B3FA83F341
:100E500003F01F03984002424BD0606820F003006B
:100E600008436060FFF7F2FD6968074641F2883089
:100E700001290DD00229814617D025E04FF00073DB
:100E8000D4E700BFFFF7E2FDC11B494501D918E0D7
:100E900081466068C0F381000128F3D118E000BFEB
:100EA000FFF7D4FDC11B49450BD86068C0F3810032
:100EB0000228F5D10CE000BFFFF7C8FDC11B494572
:100EC00002D90320BDE8F087606810F00C0FF3D161
:100ED000D8F80010404601F00701B1420BD9016873
:100EE00021F0070131430160006800F00700B042C3
:100EF00001D00120E6E72878400705D56068E96859
:100F000020F4E060084360602878000706D5606838
:100F1000296920F4605040EAC100606000F052F896
:100F20006168F02292FAA2F201F0F001B2FA82F2C4
:100F3000D140074A515CC840064908600020FFF7CD
:100F4000A5FD0020BEE70000002002400010024086
:100F5000E81B00080C0000200148006870470000F2
:100F60000C00002008480949006849684FF4E06215
:100F700092FAA2F201F4E061B2FA82F2D140044A9C
:100F8000515CC840704700000C0000200010024077
:100F9000F81B000808480949006849684FF4605286
:100FA00092FAA2F201F46051B2FA82F2D140044AFC
:100FB000515CC840704700000C0000200010024047
:100FC000F81B000810B519A385B00FCB8DE80F00F2
:100FD0001AA01B4B006804905A681A4802F00C01D2
:100FE00004291DD008291BD14FF4701494FAA4F4DD
:100FF00002F47011B4FA84F4E140D2031DF8011038
:1010000010D55A684FF4003393FAA3F302F4003278
:10101000B3FA83F3DA4004AB9A5CB0FBF2F04843D6
:1010200005B010BD08484843FAE700000203040574
:10103000060708090A0B0C0D0E0F10100102000024
:101040000010024000127A0000093D002DE9F84F1F
:1010500004460078F74DC0074FF0010625D06868B8
:101060007704C0F38100012807D06868C0F38100CD
:1010700002281BD16868C00318D597FAA7F0B0FA08
:1010800080F040F02000400901D0286800E0686A44
:1010900097FAA7F1B1FA81F101F01F0106FA01F107
:1010A00008425ED0606800287CD05AE06068B0F5E5
:1010B000803F0BD010B1B0F5A02F11D0286820F4DC
:1010C00080302860286820F4802002E0286840F4FE
:1010D00080302860606828B3FFF7B8FC80460BE0DA
:1010E000286840F480202860F0E700BFFFF7AEFCDE
:1010F000A0EB0800642871D897FAA7F0B0FA80F046
:1011000040F02000400901D0286800E0686A97FAA2
:10111000A7F1B1FA81F101F01F0106FA01F10842CD
:10112000E4D01EE0FFF792FC804605E0FFF78EFC5E
:10113000A0EB08006428DED897FAA7F0B0FA80F098
:1011400040F02000400901D0286800E0686A97FA62
:10115000A7F1B1FA81F101F01F0106FA01F108428D
:10116000E4D12078DFF8D08280074FF000094FF0FB
:1011700002075BD568684FF0F80B10F00C0F07D032
:101180006868C0F3810002281CD16868C00319D4C4
:1011900097FAA7F0B0FA80F040F02000400902D0A2
:1011A000286801E08BE0686A97FAA7F1B1FA81F14B
:1011B00001F01F0106FA01F108422CD02069012834
:1011C0007DD128E0206990B396FAA6F0B0FA80F0BD
:1011D00048F82060FFF73AFC824607E011E100BFC3
:1011E000FFF734FCA0EB0A00022884D897FAA7F096
:1011F000B0FA80F040F02000400901D0286800E0FB
:10120000686A97FAA7F1B1FA81F101F01F0106FAB5
:1012100001F10842E4D028689BFAABF26169B2FAA6
:1012200082F220F0F80091400843286025E0FFE7B3
:1012300096FAA6F1B1FA81F148F82190FFF706FC81
:10124000824605E0FFF702FCA0EB0A000228CCD89A
:1012500097FAA7F0B0FA80F040F02000400901D0E2
:10126000286800E0686A97FAA7F1B1FA81F101F005
:101270001F0106FA01F10842E4D1207800076ED57B
:10128000A069B8B396FAA6F0B0FA80F008EB800037
:10129000C0F88064FFF7DAFB824605E0FFF7D6FB73
:1012A000A0EB0A000228A0D897FAA7F0B0FA80F0C5
:1012B00040F06000B6EB501F02D128680CE062E1FC
:1012C00097FAA7F0B0FA80F040F06000B7EB501F3B
:1012D00001D1286A00E0686A97FAA7F1B1FA81F1B2
:1012E00001F01F0106FA01F21042D7D00120FFF7EA
:1012F000AEFA34E0FFE796FAA6F1B1FA81F108EB15
:101300008101C1F88094FFF7A1FB824606E000BF8F
:10131000FFF79CFBA0EB0A00022872D897FAA7F00F
:10132000B0FA80F040F06000B6EB501F01D12868A1
:101330000BE097FAA7F0B0FA80F040F06000B7EB4E
:10134000501F01D1286A00E0686A97FAA7F1B1FA44
:1013500081F101F01F0106FA01F21042D8D1207884
:10136000400765D5E86940F08050E861E869DFF83A
:10137000CCB000F080500090DBF8001041F4807198
:10138000CBF80010FFF762FB824605E0FFF75EFB3B
:10139000A0EB0A00642834D8DBF80000C005F5D5BE
:1013A000E06801280AD008B1052813D0286A20F087
:1013B00001002862286A20F0040002E0286A40F058
:1013C00001002862E06841F2883B90B3FFF73EFBE2
:1013D00082460BE0286A40F004002862EEE700BF76
:1013E000FFF734FBA0EB0A0159450AD897FAA7F09A
:1013F000B0FA80F040F04000B6EB501F02D12868F0
:101400000CE0A3E097FAA7F0B0FA80F040F04000BB
:10141000B7EB501F01D1286A00E0686A97FAA7F17C
:10142000B1FA81F101F01F0206FA02F10842D7D0A9
:1014300031E005E000100240000042420070004030
:10144000FFF704FB824605E0FFF700FBA0EB0A0173
:1014500059457BD897FAA7F0B0FA80F040F04000E9
:10146000B6EB501F01D128680BE097FAA7F0B0FA4D
:1014700080F040F04000B7EB501F01D1286A00E037
:10148000686A97FAA7F1B1FA81F101F01F0206FA32
:1014900002F10842D8D1E06980B36968C1F38101E3
:1014A000022970D04FF080714F000228484609D0C1
:1014B00091FAA1F1B1FA81F148F82100FFF7C6FADB
:1014C000044669E08A4691FAA1F1B1FA81F1C14678
:1014D00048F82100FFF7BAFA804605E0FFF7B6FAB0
:1014E000A0EB0800022854D897FAA7F0B0FA80F0D1
:1014F00040F02000400902D0286801E061E0686AFD
:1015000097FAA7F1B1FA81F101F01F0106FA01F192
:101510000842E3D1206AB0F5803F05D16868A16830
:1015200020F4003008436860D4E908010843696882
:1015300021F47411084368609AFAAAF0B0FA80F0B6
:1015400049F82060FFF782FA044606E021E000BF78
:10155000FFF77CFA001B02281BD897FAA7F0B0FA15
:1015600080F040F02000400901D0286800E0686A5F
:1015700097FAA7F1B1FA81F101F01F0106FA01F122
:101580000842E5D01DE01EE0FFF760FA001B0228CC
:1015900002D90320BDE8F88F97FAA7F0B0FA80F0DF
:1015A00040F02000400901D0286800E0686A97FAFE
:1015B000A7F1B1FA81F101F01F0106FA01F1084229
:1015C000E2D10020E6E70120E4E74FF0E021042823
:1015D000086903D020F004000861704740F004005F
:1015E000FAE7704710B5401EB0F1807F01D30120AB
:1015F00010BD4FF0E02460610F21601700F0F2F899
:101600000020A06107202061002010BD10B5FFF769
:10161000E8FF10BD70B5040004D094F8390000252F
:1016200010B106E0012070BD84F83850204600F06B
:1016300021F8022084F839002068C16821F40051A3
:10164000C160204600F042F92068016921F4904110
:1016500001612068416921F02A0141612068C16867
:1016600041F40051C160E563012084F83900002095
:1016700070BD000010B50068114986B088421DD1C8
:101680001048816941F48041816180690E4C00F409
:10169000804004904FF400700090022001900320DD
:1016A000039069462046FFF7DDF800212015CDE9BB
:1016B0000001029169462046FFF7D4F806B010BD3C
:1016C0000038014000100240000801402DE9F047B9
:1016D000044690F8390099460D46012801D0222889
:1016E00058D12DB322B394F83800012852D00126E6
:1016F00084F838600027E76394F8390022281AD06C
:101700005FF0120084F83900A284E2844FF480581C
:10171000E08C4B46401EE084A0684FF0000240453C
:101720004FF08001204613D100F088F908BB04E097
:101730000120BDE8F0873220E4E728882168C0F363
:1017400008004860206908B16D1C08E0AD1C06E087
:1017500000F074F968B9216815F8010B4860E08C55
:101760000028D5D14B4600224021204600F066F9E2
:1017700008B10320DDE794F83900322806D084F858
:10178000396000BF84F838700020D2E7222084F846
:101790003900F7E70220CCE7FEE700003EB50F482E
:1017A00000240D498460C460446101600125056125
:1017B0004FF460214460C161FEF700FE00B1FEE716
:1017C0000095CDE9015469460448FEF73FFD002825
:1017D00000D0FEE73EBD00000024014010000020C4
:1017E000FEE770470907090E002806DA00F00F002F
:1017F00000F1E02080F8141D704700F1E02080F82F
:10180000001470477047704710B5FFF725F9BDE821
:101810001040FFF7FBBE30B595B0022401200490C4
:1018200000941020059000250004CDE9085007948D
:101830006846FFF70BFC00B1FEE70AA90F2081E81C
:1018400031000D9500210AA80E95FFF7C1FA00B1ED
:10185000FEE70FA811950F94FFF724FA00B1FEE7F9
:10186000FFF77AFB4FF47A71B0FBF1F0FFF7BAFEA5
:101870000420FFF7AAFE00221146501EFFF760F970
:1018800015B030BD0D48016841F0010101604168AB
:101890000B4A1140416001680A4A11400160016829
:1018A00021F480210160416821F4FE0141604FF480
:1018B0001F0181600449C0030860704700100240A6
:1018C0000000FFF8FFFFF6FE08ED00E02DE9F04113
:1018D000044600680169E26821F440511143016146
:1018E0002169A0680843616908432168CA6841F218
:1018F0000C639A430243CA6020684169A26921F4DB
:101900004071114341614C49206864253226884268
:101910003CD1FFF73FFB00EBC00101EB0010616819
:101920008900B0FBF1F7FFF735FB00EBC00101EBDD
:1019300000106168B0468900B0FBF1F0B0FBF5F033
:101940006FF01801484307EB800106EB0110B0FB74
:10195000F5F000F0F006FFF71DFB00EBC00101EB16
:10196000001061688900B0FBF1F0B0FBF5F006EB08
:101970000016FFF70FFB00EBC00101EB00106168E0
:101980008900B0FBF1F7FFF705FB3BE0FFF7EAFA50
:1019900000EBC00101EB001061688900B0FBF1F7BA
:1019A000FFF7E0FA00EBC00101EB00106168B04600
:1019B0008900B0FBF1F0B0FBF5F06FF0180148437F
:1019C00007EB800106EB0110B0FBF5F000F0F0062C
:1019D000FFF7C8FA00EBC00101EB00106168890055
:1019E000B0FBF1F0B0FBF5F006EB0016FFF7BAFA2A
:1019F00000EBC00101EB001061688900B0FBF1F75A
:101A0000FFF7B0FA00EBC00101EB0010616889003C
:101A1000B0FBF1F0B0FBF5F06FF01801484307EBB5
:101A2000800108EB0110B0FBF5F0216800F00F0019
:101A300030448860BDE8F081003801402DE9F0476E
:101A40001D4690460E460446FFF700F807465FEA3B
:101A500008004FF000094FF0010808D030E0681C82
:101A600005D095B1FEF7F2FFC01BA8420DD8206843
:101A7000006836EA0000F2D127E0681C20D025B1CA
:101A8000FEF7E4FFC01BA8421AD92068C16821F004
:101A90008001C1602068C16821F02001C160206818
:101AA000C16821F48071C1602068416921F00101A1
:101AB000416184F8398084F838900320BDE8F087CC
:101AC0002068006836EA0000D7D00020F6E7FEE77D
:101AD00002E008C8121F08C1002AFAD170477047F7
:101AE000002001E001C1121F002AFBD17047000055
:101AF0001CB5FEF7B9FFFFF78EFE3648816941F04D
:101B000004018161806900F004000090FFF746FE47
:101B10003249314808600846FEF72DFE00B1FEE765
:101B2000002500952A4669462C480195FEF702FEDD
:101B300000B1FEE7294C2A48143420604FF4E1300C
:101B4000C4E901050C20E560C4E90450A561204604
:101B5000E561FFF75FFD41F2883600B1FEE7214DF8
:101B60001E483038FEF786FD1C480A213038FEF743
:101B7000E9FC1A483038FEF71DFC03460022686075
:101B800011461648FEF72CFE00211448FEF735FEDC
:101B9000A8882870000A687012491048334601224C
:101BA000491C1430FFF792FD20680168C9434906BB
:101BB000FBD40A48334601220A491430FFF786FD58
:101BC00020680168C9434906FBD40120FEF73FFEA7
:101BD000C6E70000001002400074004040000020F2
:101BE000003801400000002000000000000000005C
:101BF00001020304060708090000000001020304B3
:101C0000201C00080000002010000000D01A00086E
:101C1000301C00081000002088040000E01A0008B2
:101C200000000000000000000000000000A24A04C4
:0400000508000131BD
:00000001FF
